:020000040000fa
:080000000020040000000000d4
:020000040000fa
:100008009422000094220000942200009422000010
:100018009422000094220000942200009422000000
:1000280094220000942200009422000094220000f0
:1000380094220000942200009422000094220000e0
:1000480094220000942200009422000094220000d0
:100058009422000022c40000942200009422000090
:1000680094220000942200009422000094220000b0
:1000780094220000942200009422000094220000a0
:100088009422000094220000942200009422000090
:100098009422000094220000942200009422000080
:1000a8009422000094220000942200009422000070
:1000b8009422000094220000942200009422000060
:1000c8009422000094220000942200009422000050
:1000d8009422000094220000942200009422000040
:1000e8009422000094220000942200009422000030
:1000f8009422000094220000942200009422000020
:10010800942200009422000094220000942200000f
:1001180094220000942200009422000094220000ff
:1001280094220000942200009422000094220000ef
:1001380094220000942200009422000094220000df
:1001480094220000942200009422000094220000cf
:1001580094220000942200009422000094220000bf
:1001680094220000942200009422000094220000af
:100178009422000094220000bec2000094220000d5
:10018800942200009422000094220000942200008f
:10019800942200009422000094220000942200007f
:1001a800942200009422000094220000942200006f
:1001b800942200009422000094220000942200005f
:1001c800942200009422000094220000942200004f
:1001d800942200009422000094220000942200003f
:1001e800942200009422000094220000942200002f
:0801f800942200009422000093
:020000040000fa
:10020800942200009422000094220000942200000e
:1002180094220000942200009422000094220000fe
:1002280094220000942200009422000094220000ee
:1002380094220000942200009422000094220000de
:1002480094220000942200009422000094220000ce
:100258009422000022c4000094220000942200008e
:1002680094220000942200009422000094220000ae
:10027800942200009422000094220000942200009e
:10028800942200009422000094220000942200008e
:10029800942200009422000094220000942200007e
:1002a800942200009422000094220000942200006e
:1002b800942200009422000094220000942200005e
:1002c800942200009422000094220000942200004e
:1002d800942200009422000094220000942200003e
:1002e800942200009422000094220000942200002e
:1002f800942200009422000094220000942200001e
:10030800942200009422000094220000942200000d
:1003180094220000942200009422000094220000fd
:1003280094220000942200009422000094220000ed
:1003380094220000942200009422000094220000dd
:1003480094220000942200009422000094220000cd
:1003580094220000942200009422000094220000bd
:1003680094220000942200009422000094220000ad
:100378009422000094220000bec2000094220000d3
:10038800942200009422000094220000942200008d
:10039800942200009422000094220000942200007d
:1003a800942200009422000094220000942200006d
:1003b800942200009422000094220000942200005d
:1003c800942200009422000094220000942200004d
:1003d800942200009422000094220000942200003d
:1003e800942200009422000094220000942200002d
:0803f800942200009422000091
:020000040000fa
:104000004f4a2300ae7e24000e018800000000000d
:1040100000012000200288000c000700a0e42a0014
:104020000100200011000700000020000000e00057
:1040300002003200000002000000000004c2020082
:10404000000000000040da000000fe004440a9002b
:10405000005520000000e0000300320000002000b6
:10406000a00188004440a8000000060091018800db
:10407000800078000000eb0015003700e28040006f
:1040800032a0b4009101ba00e280400032a0b40036
:104090009102ba00e280400032a0b4000002eb00be
:1040a000472bde00f507b200602ce10004003a0067
:1040b0000059eb008301e900fdff3e0004003700da
:1040c0006128e100010032000082eb0004000700db
:1040d0001101ba000200e000e8ff3a00000006000b
:1040e0003159ba008301e9000c0032002159ba00ad
:1040f0008301e900080032000400e00003003a00f8
:10410000e280400032a0b400f5ff370011d9ba00b8
:104110008301e900faff3a008100e800e1804000f5
:1041200032a0b40000000600caa304000000000092
:10413000daa3040000000000d2a304000000000085
:10414000c2a30400000000003aa404000000000024
:10415000cc6b040000000000626c04000000000052
:104160008871040000000000f670040000000000e8
:104170006e6c040000000000c46b0400000000002e
:104180003a6c040000000000ca6c0400000000004b
:104190009872040000000000446c0400000000005d
:1041a000427304000000000066720400000000007a
:1041b0002e720400000000003a6f040000000000ae
:1041c000f06b0400000000003671040000000000e5
:1041d000d46b040000000000e46e04000000000046
:1041e00094a60400000000001696040000000000e1
:1041f000ce9504000000000046c604000000000048
:1042000034c604000000000022c6040000000000c4
:1042100010c604000000000000c6040000000000fa
:10422000e2c5040000000000f6c504000000000024
:10423000eec5040000000000ce9104000000000064
:104240004a910400000000004291040000000000b8
:104250007691040000000000689104000000000056
:10426000609104000000000056910400000000006e
:1042700050910400000000001292040000000000b1
:104280008491040000000000be91040000000000c2
:10429000c491040000000000667a040000000000e1
:1042a0007a7a0400000000005a7604000000000042
:1042b00012760400000000008c7a04000000000068
:1042c0009879040000000000e0760400000000007f
:1042d000d078040000000000927904000000000083
:1042e000127b040000000000627604000000000061
:1042f0000c800400000000005a8004000000000050
:10430000a67f0400000000006e7f04000000000093
:104310008881040000000000b48004000000000058
:1043200054810400000000007681040000000000b9
:1043300000830400000000008e80040000000000e4
:10434000ca62040000000000c46204000000000013
:10435000d0620400000000001468040000000000a7
:1043600026680400000000003c6704000000000014
:1043700066630400000000004a65040000000000bd
:10438000fc67040000000000de6404000000000080
:10439000f66204000000000058b7040000000000ae
:1043a0006eb704000000000050b7040000000000d9
:1043b0004ab704000000000038c9040000000000f3
:1043c00040c904000000000050c9040000000000c3
:1043d00048c904000000000030c9040000000000cb
:1043e00058c90400000000002ac9040000000000b1
:1043f0004eb8040000000000b8b704000000000040
:1044000038b8040000000000c4b904000000000037
:1044100084b70400000000009ebc040000000000ff
:104420008abc040000000000b2bc040000000000d0
:104430007abc04000000000072bc04000000000010
:1044400000bd040000000000d0bd0400000000001a
:10445000ecbd040000000000c4bc0400000000002b
:104460003cb6040000000000d6b5040000000000c7
:10447000e8b6040000000000c6b50400000000001b
:10448000ccb5040000000000ceb90400000000001c
:10449000dcb9040000000000baba0400000000000b
:1044a0000ebb040000000000eab904000000000098
:1044b000f0b904000000000068650400000000007e
:1044c00030ba040000000000f09b0400000000006f
:1044d000149c040000000000809c04000000000008
:1044e000289c040000000000049d0400000000005f
:1044f000409b040000000000e49b0400000000005a
:10450000ea9b040000000000929d040000000000ef
:1045100058cd04000000000054cd0400000000004d
:10452000dcc50400000000000040da000000fe00ce
:1045300003f0a200889fbe008a9fbe008c1f7800f7
:1045400059010700600133006450e1004f00320060
:104550006420e1005200320003826c0007003b003f
:104560000905d0000306d000820f54000c065d0040
:104570000200390002003200890178000306780049
:104580008582550004003d000003fd008103fd000d
:104590008502ea008b854200840f720002003b0016
:1045a00060001000e08018006011b8000005eb000a
:1045b0007a28e1000a00390006007800c75ddd00b6
:1045c000f707b200878075002d00370082817100e7
:1045d0000a017800610560008180d1000080d3006d
:1045e0008502e900f9ff3b0006044000878448008b
:1045f00002003b0060041400e0841c000988a30052
:10460000070032008a8171008281710061016400bb
:104610008904d1000884d3008b05e8001700370017
:104620000978a30013003a000b00e00013003400e7
:104630008b05e9000804440089844c000a44740096
:104640000978a3000d003a000b00e00007003400d9
:104650008b05e9000804440089844c0001003a00fd
:104660000b0020000978a300f7ff32000001eb00e7
:1046700002003700828171000a017800cf00070034
:104680000cf0a70001f0a000180137006420e10041
:1046900002003a00838f6c00180133000801be004d
:1046a0000200be0011013700889fbe008a9fbe0035
:1046b0008c1f7800fc0007000301330003866c00a8
:1046c0006450e1002e0032006420e100330032002b
:1046d0006150e1002f0032006120e1003100320022
:1046e00085855500eb07b000090020000804200074
:1046f000050037000804440089844c000a0031009a
:104700000603430087834b000001530081815b0057
:10471000f8ff33000203be000800a00008044400b4
:1047200089844c00f6ff3900c639dd00830173002f
:1047300001003200130020008904d1000884d30056
:104740000998a300050032000800a7000300a0009c
:104750008904d1000884d3008b05e8008904d100c6
:104760000884d3000001eb000281d200930007000f
:1047700001f0a1000cf0a70001f0a000db00370061
:104780006420e100dd0032000801be000200be002e
:10479000f7ff37006120e100d80032006000b80068
:1047a000f3ff37000000200001f82700f0ff37007a
:1047b000839f68000100e00002003d0060001000df
:1047c000e08018000300e00002003d0060011100dd
:1047d000e0811900000107004f00e00002003b00eb
:1047e00060001000e08018000000060014002000a7
:1047f000eb013700f4ff2f00e90137000003be0092
:10480000940007006011b8000470a70007f0a10031
:1048100007f8a30017003a006509b1000d00320047
:104820000d003500860220000628e1000300350057
:10483000030028006000b8000200050000004000ee
:104840008180480002014900838149008502e90016
:10485000faff3a0000000600f88f4200050034001d
:104860008100d1000080d3008502e800fcff3a00ff
:10487000000006006011b8008000eb000000050099
:104880000001be00730007000470a70003f0a10040
:1048900003f8a30013003a006509b10010003200cc
:1048a000090035006928e1000200350001002800f8
:1048b0000000050000004000818048008502e900fa
:1048c000fcff3a0000000600f88f420005003500aa
:1048d0008100d1000080d3008502e800fcff3a008f
:1048e000000006008000eb00000005004f89de009c
:1048f00082017800c5013700889fbe008a9fbe00f4
:1049000000827000040271000482710026003200ef
:104910000004be000200be006011b8006b09200058
:10492000950220000182cf000a0039000541b10044
:104930000082cf00070039000541b1000982cf0095
:10494000040039000541b1000882cf0001003900a0
:104950000541b10005425200120032000a003b003e
:1049600082817100610164008100d1000080d30068
:104970008984d3000884d3008b05e8000442e80052
:10498000f7ff3a00070037000804440089844c0010
:1049900000004800818048008b05e9000442e900de
:1049a000f9ff3a00050007004f05be004f04be00a6
:1049b000000006006011b800cfff37008100200022
:1049c000618055000b003d000b00200061fe2f00b0
:1049d0000100e1001d00340082817100610164006a
:1049e0008904d1000884d3000000e800faff3a00ef
:1049f000710020006100640003007000020060008c
:104a00000900320061044400e0844c000988a500dc
:104a1000050032008b05e8006808e10002003a005a
:104a20008904d1000884d300f20f20000258e1006d
:104a300005003d00c75ddd00f907b2008980750003
:104a400008007800000006000bf827008b007800b3
:104a500000000500c70ade00f107b200f50fb20042
:104a600008003200e1cf4200020032000170a000d5
:104a700024000500810f70000100320004080500c9
:104a800044000500810f700002003a001400050088
:104a90008502e9000000400081c04800fcff3b00a7
:104aa0000170a000240005000004be00e9ff07001b
:104ab0000003be000405be000200be00e5ff0700c3
:104ac000844f7500000006000200be006450e10043
:104ad000050036006420e100020036000968a300ea
:104ae00001003a000800be000160a0004f067800f7
:104af0004f05be004f04be0000000600f0ff2f006f
:104b0000f1ff2700f9ff3700889fbe008a9fbe0093
:104b10008c1f7800e4ff0700ebff330003866c0076
:104b20006450e100240032006420e10027003200dc
:104b30006150e100220032006120e10021003200da
:104b40008b854200eb07b1000134b800003ab80091
:104b50000804420089844a00013ab8000030b800d5
:104b60008880400009014a00040033000000400032
:104b700081804800020149008b05e900c909dd0078
:104b8000830170000100320013002000c814de0011
:104b90004814dd004709de001200b200c808de003c
:104ba0000884700085ff070001f0a1000cf0a70049
:104bb00001f0a000cdff37006120e100cfff3200ff
:104bc0000801be000200be00f7ff37006150e1009f
:104bd000fcff3a00c9ff37006022b800060220003f
:104be0000000d0008180d2000482d2008582d200f1
:104bf0000000a0000202520083825a00030031002c
:104c00000202420083824a000000a1000603e9007c
:104c1000f3ff3a0000000600efff07000400be00ab
:104c200000000600889fbe008a9fbe003004be00c0
:104c30002005be000404440085844c0006054d0098
:104c400087854d000898be000a90be000440e10030
:104c500005c8e10006d0e10007d8e10002003100fc
:104c6000680040001008e8004f05be004f04be0079
:104c7000000006001000fa00889fbe008a9fbe0058
:104c80000605be000404be003002be002003be00c4
:104c9000c4b79f00d5b79f00e6b79f00f7b79f0046
:104ca0000802520089825a000a035b008b835b0072
:104cb00084bf9f0095bf9f00a6bf9f00b7bf9f0006
:104cc0000498be000698be00110020004fb2970065
:104cd000dfb297006fb39700ffb397000820e100a1
:104ce00009a8e1000ab0e1000bb8e10001003900b9
:104cf0008000eb00108810004f05be004f04be007e
:104d00000080fa00000006001400fa00889fbe0030
:104d10008a9fbe008c9fbe003f0007000605be00b4
:104d20000404be000006eb00ccb79f00bcb79f0098
:104d3000acb79f009cb79f008cb79f000d0420006c
:104d40004fb39700bfb29700860343002fb297007e
:104d5000e00f530004003d003d0007000f0040003d
:104d6000b0ff070003003700390007000f004000c4
:104d7000c0ff0700cfb2970095bf9f00e08f5200a1
:104d8000090035002b00070014002000050020005a
:104d90006033b8000000720081807200020173006d
:104da000838173001c0007000c06e8008d0f56007d
:104db000e3ff3a001fba9700e00f520005003d00e4
:104dc0000802be000a03be0000fe2f000f004000d4
:104dd00094ff07004faa9700e00f520008003a0026
:104de0000fb497009fb497002fb59700bfb59700f9
:104df000d8b79f00e9b79f00fab79f008bbf9f000d
:104e00000c0007004f06be004f05be004f04be0059
:104e10000080fa0000000600010007000000060004
:104e200090b79f00a1b79f00b2b79f00c3b79f0084
:104e30000000060001000700000006001fb09700f8
:104e4000afb097003fb19700cfb1970000000600c8
:104e50004f2bde0087037300a7b79f004f23de00b0
:104e6000858242008502730095b79f00ffaa9700d4
:104e70004f2bde00040242000402730084b79f003f
:104e80006faa97004f23de008582420085027300df
:104e9000f5af9f00e9ff07004f18de000402420053
:104ea00000027200e4af9f00e4ff07000000400032
:104eb000818048000201490083814900d8ff070032
:104ec0000802be000a03be0000fe2f00000006001c
:104ed000881f780018002000881f78008aff0700cc
:104ee0008f87e9004f04780000000600801feb0068
:104ef00085ff07008f87e90000000600889fbe003d
:104f00008a9fbe008c1f78000006eb00e00f500067
:104f1000e08f5800e00f5900e08f590007003d0076
:104f20006044b8006055b8000000540081805c0007
:104f300002015d0083815d001c002000e00f520033
:104f4000e08f5a00e00f5b00e08f5b0007003d0040
:104f50006044b8006055b8000402540085825c00cb
:104f600006035d0087835d000c00a2003700070088
:104f7000e00f5600060032006022b8006033b8002f
:104f80000000520081805a0002015b0083815b00b7
:104f90004f0678004f05be004f04be00000006001b
:104fa000889fbe008a9fbe00841f7800befe070057
:104fb0004f00780011003300f0ff2f00838f6c004a
:104fc00006003b00040565000a00a7000800370042
:104fd00009f0a6001000200008003700820f5400de
:104fe000838f5c00030039001000200001003e00a8
:104ff0000000200009f0a7000000ea004f05be00f5
:105000004f04be000000e00000000600881f78008a
:10501000030478000300e00007003d00600010007a
:10502000e080180060011900e081190002003b00d7
:1050300001f02d00030037002ffe070008f0a70045
:1050400001f0a0004f04780000000600889fbe0019
:105050008a9fbe008c9fbe000404b8000506b800fd
:105060008904460060854e000606b8000a05460021
:10507000e0854e000706b8008b054600040eb80018
:10508000890446000a854e00e0854d00050eb800f3
:105090000a0546008b854e00060eb8008b054600bb
:1050a0000416b8000a0546008b854e000516b800a8
:1050b0008b054600041eb8008b0546000800be00a4
:1050c0000a01be004f06be004f05be004f04be00e1
:1050d000000006000002780002003700315a780014
:1050e0000201e900e00f5100fcff3a000000060059
:1050f0000002780002003700015a78000201e9003e
:0c510000e00f5100fcff3a000000060028
:020000040000fa
:10510c0030300000302c0000003000003000000077
:10511c00000800000808000008080000003000002b
:10512c0031320000333400003536000037380000cf
:10513c003941000042430000444500004600000095
:10514c0080400000c0200000a0600000e0100000c3
:10515c0090500000d0300000b0700000f00800004b
:10516c0088480000c8280000a8680000e818000063
:10517c0098580000d8380000b8780000f8040000f7
:10518c0084440000c4240000a4640000e414000063
:10519c0094540000d4340000b4740000f40c0000eb
:1051ac008c4c0000cc2c0000ac6c0000ec1c000003
:1051bc009c5c0000dc3c0000bc7c0000fc0200009d
:1051cc0082420000c2220000a2620000e212000033
:1051dc0092520000d2320000b2720000f20a0000bb
:1051ec008a4a0000ca2a0000aa6a0000ea1a0000d3
:1051fc009a5a0000da3a0000ba7a0000fa06000067
:10520c0086460000c6260000a6660000e6160000d2
:10521c0096560000d6360000b6760000f60e00005a
:10522c008e4e0000ce2e0000ae6e0000ee1e000072
:10523c009e5e0000de3e0000be7e0000fe0100000f
:10524c0081410000c1210000a1610000e1110000ba
:10525c0091510000d1310000b1710000f109000042
:10526c0089490000c9290000a9690000e91900005a
:10527c0099590000d9390000b9790000f9050000ee
:10528c0085450000c5250000a5650000e51500005a
:10529c0095550000d5350000b5750000f50d0000e2
:1052ac008d4d0000cd2d0000ad6d0000ed1d0000fa
:1052bc009d5d0000dd3d0000bd7d0000fd03000094
:1052cc0083430000c3230000a3630000e31300002a
:1052dc0093530000d3330000b3730000f30b0000b2
:1052ec008b4b0000cb2b0000ab6b0000eb1b0000ca
:1052fc009b5b0000db3b0000bb7b0000fb0700005e
:10530c0087470000c7270000a7670000e7170000c9
:10531c0097570000d7370000b7770000f70f000051
:10532c008f4f0000cf2f0000af6f0000ef1f000069
:10533c009f5f0000df3f0000bf7f0000ff00000008
:10534c00525500004e00000052450000545500001c
:10535c00524e0000000000004c4900005354000065
:10536c000045000058490000540000004e45000064
:10537c00570000004c450000540000004946000056
:10538c0000540000484500004e000000454c000051
:10539c0053450000004700004f5400004f00000030
:1053ac00474f0000535500004200000052450000da
:1053bc004d00000050520000494e00005400000007
:1053cc00494e00005055000054000000464f0000ac
:1053dc0052000000544f0000004e000045580000e1
:1053ec0054000000524500004144000000440000fd
:1053fc004154000041000000535400004152000091
:10540c00545200000053000054410000525400005c
:10541c0000530000544f0000505200000053000095
:10542c00544f000050000000534500004e44000053
:10543c00005200004543000045490000564500005d
:10544c00004300004c4b000000440000415400009d
:10545c000042000049540000524500004144000045
:10546c00004100004443000000410000555800007a
:10547c00504900004e000000505300005500000041
:10548c00505500004c4c00005550000000440000ea
:10549c00454c0000415900000041000055580000e7
:1054ac000046000052450000510000004455000029
:1054bc0054590000004d000041430000524f0000c1
:1054cc00004500004e44000000000000c0a9000090
:1054dc00c4a90000c7a90000cca90000d1a90000f4
:1054ec00d6a90000aaa90000dca90000e0a90000d0
:1054fc00e6a90000eca90000f0a90000f3a9000047
:10550c00f8a90000fda9000002aa000009aa0000e9
:10551c000faa000015aa00001aaa00001faa00007a
:10552c0027aa00002baa00002faa000037aa00000f
:10553c003baa000042aa000046aa00004daa0000a7
:10554c0053aa000057aa00005caa000061aa000040
:10555c0067aa000000000000002e0000003a0000c6
:10556c0020000000005e0000bce20000613f000073
:10557c00dd830000c29c00007e200000a3fd000023
:10558c001f4100009dc30000217f0000fca2000011
:10559c00401e00005f010000e3bd00003e60000003
:1055ac0082dc0000237d00009fc10000421c000033
:1055bc00fea00000e1bf00005d03000080de0000e3
:1055cc003c620000bee00000025c0000df810000d5
:1055dc00633d00007c220000c09e00001d430000c3
:1055ec00a1ff000046180000faa400002779000073
:1055fc009bc5000084da000038660000e5bb0000a3
:10560c0059070000db85000067390000bae4000090
:10561c000658000019470000a5fb00007826000082
:10562c00c49a0000653b0000d9870000045a0000b2
:10563c00b8e60000a7f900001b450000c698000062
:10564c007a240000f8a60000441a000099c7000054
:10565c00257b00003a64000086d800005b05000042
:10566c00e7b900008cd20000306e0000edb30000f2
:10567c00510f00004e100000f2ac00002f71000022
:10568c0093cd0000114f0000adf30000702e000010
:10569c00cc920000d38d00006f310000b2ec000002
:1056ac000e500000aff10000134d0000ce90000032
:1056bc00722c00006d330000d18f00000c520000e2
:1056cc00b0ee0000326c00008ed00000530d0000d4
:1056dc00efb10000f0ae00004c12000091cf0000c2
:1056ec002d730000ca94000076280000abf5000072
:1056fc001749000008560000b4ea000069370000a2
:10570c00d58b000057090000ebb50000366800008f
:10571c008ad4000095cb000029770000f4aa000081
:10572c0048160000e9b70000550b000088d60000b1
:10573c00346a00002b75000097c900004a14000061
:10574c00f6a80000742a0000c8960000154b000053
:10575c00a9f70000b6e800000a540000d789000041
:10576c006b35000012010000000200000200000076
:10577c0000080000d804000000fb0000020000003c
:10578c0001020000030100000902000043000000b8
:10579c000201000000800000640900000400000009
:1057ac0000010000020200000100000005240000be
:1057bc00001000000104000024020000020500009b
:1057cc002406000000010000052400000101000077
:1057dc000107000005810000030a000000400000e2
:1057ec000904000001000000020a00000000000093
:1057fc00000700000502000002400000000000004d
:10580c0007050000820200004000000000040000b8
:10581c0003090000042a000003440000006100009a
:10582c00006e0000006700000065000000720000c0
:10583c00006f0000007500000073000000200000e5
:10584c000050000000720000006f000000740000a7
:10585c00006f000000740000007900000070000070
:10586c000065000000730000001e000003420000f1
:10587c0000750000007300000020000000500000c4
:10588c00006900000072000000610000007400005c
:10589c0000650000002000000056000000340000ed
:1058ac000020000000120000033000000030000057
:1058bc00003000000030000000300000003000001c
:1058cc000030000000310000000000004909000019
:1058dc00004f00000900000048090000004c0000c7
:1058ec0009000000000d00000a28000000780000ec
:1058fc00002900003e000000082000000800000005
:10590c002e200000004200007573000020500000a3
:10591c00697200006174000065200000763400009c
:10592c00004300006f6d00006d7500006e69000093
:10593c007479000020460000697200006d77000049
:10594c006172000065200000763700002e310000e7
:10595c00202d0000206700006f6f00002e670000f4
:10596c006c2f0000674300007a5100006e57000056
:10597c0020000000290000003e0000001b5b00001e
:10598c00440000001b5b000000440000001b0000f2
:10599c005b430000001b00005b3200004b0d00005d
:1059ac0000430000001b00005b32000044000000bc
:1059bc002e2000003c000000000000000100000050
:1059cc0000000000020000000000000004000000c5
:1059dc0000000000080000000000000010000000a3
:1059ec00000000002000000000000000400000004b
:1059fc00000000008000000000000000800000009b
:105a0c000000000000010000000000000002000087
:105a1c00000000000004000000000000000800006e
:105a2c00000000000010000000000000002000003a
:105a3c00000000000040000000000000008000009a
:105a4c000000000000000000010000000000000049
:105a5c000200000000000000040000000000000034
:105a6c000800000000000000100000000000000012
:105a7c0014340000040d00008206000040030000f6
:105a8c00a0010000cf0000006700000044000000ef
:105a9c00220000007f000000000000000000000059
:105aac002c01000000000000580200000000000063
:105abc00b0040000000000006009000000000000bd
:105acc00c012000000000000802500000000000053
:105adc004038000000000000004b000000000000f7
:105aec008070000000000000009600000000000024
:105afc00c0da00000000000000e10000000000001f
:105b0c0000c200000100000000f4000001000000d1
:105b1c0000e8000003000000314100004c5300007d
:105b2c00014200005076000034000000210000000b
:105b3c000010000000230000000f00004240000095
:105b4c0040050000410200000000000000000000c1
:105b5c00181c00001d0c0000161a00000b0f000092
:105b6c001e1700001b00000014640000020a000055
:105b7c0001050000000000000020000029000000ca
:105b8c009d2500000d000000290000000000000011
:105b9c0000000000000000000000000000000000f9
:020000040000fa
:105bac00c516800000826200f0c62a000100320097
:105bbc00c0c62a004aa10200000000000000060036
:105bcc00d51680000082620050c72a000100320006
:105bdc0020c72a004aa102000000000000000600b5
:105bec0004c3b300e00f5000010032000442e8008f
:105bfc0004407800d89f020000000000000006005e
:105c0c00889fbe0040632d00010020007abf020077
:105c1c0000000000a08b2c00010020007abf0200c5
:105c2c0000000000c0db2c000100200020bf02009f
:105c3c0000000000b4462300144278008482fb006c
:105c4c000403200004aab9004402b000c5c6220017
:105c5c0065027a0004000100c0632d0001002000e1
:105c6c0020bf02000000000010002000ccff070045
:105c7c0000102000caff070000022000c8ff070028
:105c8c0000012000c6ff070080002000c4ff0700b1
:105c9c0040002000c2ff070020002000c0ff0700ca
:105cac0080c72a005ca2020000000000c07e2d000c
:105cbc000100200020bf02000000000021e3a8002a
:105ccc0020002000849f020000000000d0a00200f1
:105cdc0000000000c8852d00090020000800be004f
:105cec0020bf02000000000090c0b300d89f02004b
:105cfc00000000000000eb00849f02000000000088
:105d0c00d0a00200000000000800be0020bf02006e
:105d1c000000000090c0b300d89f020000000000fb
:105d2c0050002000849f020000000000d0a0020060
:105d3c00000000000800be0020bf020000000000b0
:105d4c0090c0b300d89f020000000000100020009b
:105d5c00849f020000000000d0a0020000000000a0
:105d6c000800be0020bf02000000000090c0b3007d
:105d7c00d89f02000000000021e3a90010002000c1
:105d8c008fff0700001020008dff0700000220008d
:105d9c008bff07000001200089ff07008000200016
:105dac0087ff07004000200085ff0700200020002f
:105dbc0083ff070080c72a005ca2020000000000dd
:105dcc004f04be0000000600889fbe008a9fbe00e4
:105ddc00169881000682fb000520230065407a009e
:105dec00f4ccb30004424000e84f520019003e00ce
:105dfc000080fb000003b1000602e8000482fb00f7
:105e0c00e5427a0007cdb30087c34200140020009e
:105e1c00e9cf530078003e00f80f20000320230048
:105e2c0002cdb3006a00b9008582fb0000804200fd
:105e3c000003b1000402e80086024200888262007e
:105e4c00e3c27a0082c34200e9cf5300f5ff36006b
:105e5c006900370004c3b300844f500061003a005e
:105e6c000602e8000482fb0005202300e5427a00cc
:105e7c0024c6b30084cf52000b003a000682e8001f
:105e8c000482fb0005202300e5427a0007cdb30015
:105e9c0087c342000000eb0024002000e1cf530038
:105eac00050036005400370024c4b30084cf5200e0
:105ebc0010003a00f1ff3700f30f200002202300fe
:105ecc0001cdb300000040008582fb0005004000be
:105edc000003b1000402e8008602420083826200e3
:105eec00e2c27a0081c34200e1cf5300f5ff3600d5
:105efc004100370084c7b30084cf52000a0032003f
:105f0c0084c5b30084cf52001f003a00090037004b
:105f1c004400dd000003b1008582fb000500400059
:105f2c000402e8000b0037000000eb002400200006
:105f3c00020037000000eb0024002000f80f2000c6
:105f4c000220230003cdb300f9cbb3000ac2b30087
:105f5c00fbc9b3008603420088836300e2c27b0066
:105f6c0083c04200e9cf5000e9ff360089c04200ef
:105f7c00e5cf5000270036008bc04200e5cf500023
:105f8c00240036001c00370007cdb30087c3420045
:105f9c000000eb0014002000e9cf530016003e0077
:105fac000580fb000003b100f80f20000320230044
:105fbc0002cdb3006a00b9008582fb00008042006c
:105fcc000003b1000402e8008602420088826200ed
:105fdc00e3c27a0082c34200e9cf5300f5ff3600da
:105fec000500370015c0b30044302300054a780083
:105ffc000000eb00040037001598810005024200f8
:10600c000482fb00149889004f05be004f04be00ab
:10601c00000006008ac2720005f17b004400dd001e
:10602c007005b1008582fb0005004000bcff370005
:10603c00881f7800149881008402e8008582fb0098
:10604c000620230066c37a0010002000a5c3b3000d
:10605c00854f530009003a000482e800f80f200035
:10606c00080262001498890057ff070014988100f9
:10607c000402e90008046200189889004f047800b3
:10608c0000000600881f7800149881008402e80044
:10609c008582fb000620230066c37a000000eb001b
:1060ac00b5c3b300854f530009003a000482e800e1
:1060bc00f80f2000080262001498890042ff0700c4
:1060cc00149881000402e900080462001898890001
:1060dc004f0478000000060014988100052023006e
:1060ec0065437a0005c2b300854f530009003a009e
:1060fc00f00f200007202300054378000402e8007d
:10610c0000026200e7427a0086cf5200fbff3200a9
:10611c001498890000000600f6874700889fbe008f
:10612c008a9fbe008c9fbe008e1f7800e0b79f0038
:10613c00d1b79f00a2b79f0083bf9f000ecdb300c5
:10614c00dcc2b300ecef9f008dc7b300480a2d00f2
:10615c0009002000b8b79f00c9b79f0090c72a005c
:10616c004aa1020000000000efb29700e08f52003d
:10617c0004003d00d0c72a004aa102000000000024
:10618c00030037004fe89700aca0020000000000ad
:10619c00f0c72a004aa10200000000000005eb0035
:1061ac008a0578003ca3020000000000004478003f
:1061bc00ed4f54004300320005003e00e84f540000
:1061cc0008003200ea4f540027003a003d00370027
:1061dc008c4f5400150032008d4f540022003a00b1
:1061ec001d003700e08f5500050032008b05e900db
:1061fc0020c82a004aa1020000000000e9ff370075
:10620c00e00f55000500320020c82a004aa1020008
:10621c00000000000005eb00e2ff370070c0b30087
:10622c00d89f020000000000deff3700e08f550011
:10623c0005003a006fe89700d89f020000000000ac
:10624c001a002000d7ff370070c0b300d89f02009f
:10625c0000000000d3ff37000fb89700e00f50008c
:10626c00140032003a0037000e424400e94f52004d
:10627c0010003e00e38f55000500340070c0b300e1
:10628c00d89f0200000000004b002000c5ff370023
:10629c0008407800d89f0200000000008842780077
:1062ac00e4fd2f000f02420005f27d008b05e80093
:1062bc00bcff370070c0b300d89f02000000000084
:1062cc00b8ff370080c72a005ca202000000000063
:1062dc00e08f5500220032000b02e9000003eb00b6
:1062ec00860f52000a003500e4fd2f000f02420019
:1062fc008b0542006a33b900344078008082fb0081
:10630c000503b100068342008b0f5200f9ff3a00df
:10631c005fb29700860f520008003c00afb29700a6
:10632c00868f520005003500e00f55000b0032003f
:10633c000602ea00e4b79f00090037003fb097005f
:10634c00cfb097007abf02000000000083ff370037
:10635c000080eb00e0b79f0001003700e6b79f001c
:10636c006fb097004f0778004f06be004f05be0078
:10637c004f04be006f01b100000006001e00fa00c1
:10638c00889fbe008a9fbe008c9fbe00149881001f
:10639c000404e9000884fb001d002000880f520053
:1063ac002b00320009202300fb0f200069427c00e7
:1063bc00e04f520021003a000806e8000b06660088
:1063cc0069427e00e04f52001c0032000d40780004
:1063dc00aca002000000000060c82a004aa1020024
:1063ec000000000069407e00e04f500008003200c1
:1063fc000885e800d89f0200000000000b02650031
:10640c0069407a000a05e800e04f5000f9ff3a00b5
:10641c000d8246000c03780065fd2f008f82420030
:10642c0086327a008d06e800ef8f560008003200a5
:10643c0080c72a005ca20200000000000804e900ea
:10644c000b04640014988100840f5400d7ff3a00a9
:10645c0080c72a005ca202000000000060702d00c2
:10646c00010020007abf0200000000001300200091
:10647c000d017800830078000000eb0026ff070078
:10648c000002e800e10f52000b0036000000400053
:10649c0064fd2f000f024200e40078000182fb0033
:1064ac0005202300e5427a000002eb00e0cf520009
:1064bc0006003a001200370080c72a005ca20200d6
:1064cc0000000000100020001c0037000298810022
:1064dc000002eb00f70f2000062023000200420010
:1064ec0007006000057378000402e8008102420096
:1064fc0087826200e6c27a00e0cf5200f7ff3a00d2
:10650c00069881000603e900f50f200005036300df
:10651c00169889000683e800040243000502620015
:10652c00049889000402e900850262000043eb0034
:10653c000420230006f27a000000eb004f06be0098
:10654c004f05be004f04be000080fa00000006009c
:10655c00889fbe008a9fbe00149881000402e80048
:10656c000482fb0014988900dbfe070016fe07006e
:10657c00e00f500046003a000004eb000903200035
:10658c00cac622000840e800aca0020000000000cf
:10659c0060c82a004aa102000000000009c0b9002e
:1065ac008002b0000a0040005ca202000000000063
:1065bc000804e800eb0f5400f2ff3a0040252d00d0
:1065cc00010020007abf02000000000044302300cc
:1065dc00004aeb0013002000b2002000830078007a
:1065ec0003007800ccfe07000004e9000000e8007e
:1065fc00e10f500005003e00e0522d00010020008c
:10660c007abf02000000000041003700b9462300a9
:10661c00994278000582fb000a0320000aa2b90007
:10662c002402b000cbc622006b027a0004000100e9
:10663c001e9f020000000000884c78000882fb00be
:10664c000aa2b9007e0542006b027d000400010025
:10665c00c0362d00010020007abf020000000000af
:10666c00e00f540005003200cb02a80020a42c003f
:10667c00010020007abf020000000000407a2d00cb
:10668c00010020007abf020000000000200037004b
:10669c000004e900ea0f540019003c00b94623003d
:1066ac00994278000582fb000a0320000aa2b90077
:1066bc002402b000cbc622006b027a000400010059
:1066cc001e9f020000000000884c78000882fb002e
:1066dc000aa2b9007e0542006b027d000400010095
:1066ec00e00f540001003200cb02a800407a2d00cc
:1066fc00010020007abf02000000000004003700f7
:10670c0040262d00010020007abf0200000000008e
:10671c00049881000402e9000482fb0014988900ab
:10672c004f05be004f04be0000000600fc8747006a
:10673c00889fbe008a9fbe008c9fbe008e1f780073
:10674c00a4b79f00b5b79f0083bf9f00dec2b30004
:10675c006112b900c4b79f00d5b79f004a0a2d003b
:10676c000b002000e0b79f00f1b79f0090c72a00f4
:10677c004aa10200000000006fb29700ffb2970020
:10678c00e00f5200e08f5a0004003d00d0c72a00f1
:10679c004aa1020000000000040037006fb097000f
:1067ac00ffb09700c6a0020000000000f0c72a004e
:1067bc004aa10200000000000006eb008c067800e5
:1067cc003ca302000000000000447800ed4f540090
:1067dc004500320005003e00e84f5400090032002d
:1067ec00ea4f540028003a003f0037008e4f540007
:1067fc001600320084c7b300844f540022003a00c4
:10680c001d003700e08f5600050032008d06e900b0
:10681c0020c82a004aa1020000000000e8ff37004f
:10682c00e00f56000500320020c82a004aa10200e1
:10683c00000000000006eb00e1ff370070c0b30061
:10684c00d89f020000000000ddff3700e08f5600eb
:10685c0005003a000e407800d89f020000000000ae
:10686c001c002000d6ff370070c0b300d89f020078
:10687c0000000000d2ff37008fba9700e08f520063
:10688c00150032004100370006cdb300064244002b
:10689c00e94f520010003e00e98f5600050034000d
:1068ac0070c0b300d89f020000000000ad002000b3
:1068bc00c3ff370008407800d89f0200000000009a
:1068cc000842780087fd2f008f83430084f37e00fd
:1068dc008d06e800baff370070c0b300d89f0200e5
:1068ec0000000000b6ff370080c72a005ca202003f
:1068fc0000000000e08f5600290032000d03e90073
:10690c006022b8000e00330086fd2f000f034300f9
:10691c008d0643006a28b9006a22b800850240003f
:10692c00b64378000780fb000003b100cf80de0087
:10693c0004024000858248008d0f5300f5ff3a0099
:10694c004fb39700dfb39700840f5300858f5b0024
:10695c000a003c002fb39700bfb39700840f53007d
:10696c00858f5b0005003500e00f56000a003200f1
:10697c0060041200e0841a000b0037000a00be000d
:10698c007abf02000000000078ff37000084eb00a3
:10699c008084eb00040037000404be0002003700c2
:1069ac006fb49700ffb497000800be004f07780043
:1069bc004f06be004f05be004f04be00cf01b10014
:1069cc0000000600889fbe008a9fbe0090c82a0067
:1069dc005ca202000000000070c92a004aa102005b
:1069ec0000000000b0c5b300d89f020000000000fa
:1069fc00190020000004eb000a032000cbc6220083
:106a0c00020037000804e8008904e800e00f540095
:106a1c004100320000c2b300d89f02000000000009
:106a2c000ac0b9008002b0000b0040004aa102006d
:106a3c0000000000ea8f5400f2ff3600d0c5b3000e
:106a4c00d89f02000000000080c72a005ca2020050
:106a5c0000000000c0702d000100200020bf0200cb
:106a6c000000000020a38100e69f0200000000004f
:106a7c00c0732d000100200020bf020000000000a8
:106a8c006846230018007800e69f02000000000012
:106a9c0000462d000100200020bf02000000000075
:106aac0018027800e10f520003003200e30f52008d
:106abc000b003a000500370040852d000100200036
:106acc0020bf0200000000000900370060852d0087
:106adc000100200020bf020000000000040037006d
:106aec0000812d000100200020bf020000000000ea
:106afc0000cc2a005ca2020000000000a0f72c00d1
:106b0c00010020007abf0200000000004f05be000b
:106b1c004f04be00000006000ac0b9008002b0009d
:106b2c000b0040004aa1020000000000b5ff370036
:106b3c00b44623008042eb0094cf120008003a00c8
:106b4c0040052d00010020007abf0200000000006b
:106b5c0015c0b30044302300054a78006d0037009f
:106b6c0064442300144278007042620008003a002a
:106b7c00e0f12c00010020007abf020000000000b0
:106b8c0015c0b30044302300054a7800610037007b
:106b9c00e8a2a800e882a80000d02700010020008d
:106bac0038cd02000000000021e3a80050002000b6
:106bbc00849f02000000000004102000840f50008d
:106bcc0004003600c0d12c00010020007abf020066
:106bdc000000000021e3a900149881000402e800e1
:106bec000482fb00149889003bfd070076fc07002b
:106bfc00443023008042eb0094cf12000a00320094
:106c0c00004aeb0040842c00010020007abf0200f7
:106c1c00000000008001eb00320020001100200079
:106c2c00100020003cfd0700e20f50000f00320066
:106c3c00e30f50001d003200e10f50002b003a0012
:106c4c00e8a2a800e882a80080172d00010020000f
:106c5c0020bf020000000000e0742d0001002000a5
:106c6c007abf0200000000002a003700e8a2a8004a
:106c7c00ea82a900e882a900007c2d000100200016
:106c8c0020bf02000000000080172d000100200032
:106c9c0020bf02000000000080742d0001002000c5
:106cac007abf0200000000001a003700e882a8003a
:106cbc00eaa2a900e8a2a900a0842d0001002000ee
:106ccc0020bf02000000000080172d0001002000f2
:106cdc0020bf02000000000080742d000100200085
:106cec007abf0200000000000a003700e8a2a800ea
:106cfc00e882a80080172d000100200020bf0200b0
:106d0c0000000000e0742d00010020007abf02009a
:106d1c0000000000000006004f02b000889fbe007b
:106d2c008a9fbe008c9fbe008e1f78000002eb0075
:106d3c001498890004988900b5462300844a780089
:106d4c0045302300844a7800553023009f00090009
:106d5c00805aeb00349d8900e4df9f00d4b79f007c
:106d6c00e4b79f008002eb00c5b79f000003eb0067
:106d7c0096b79f00a4b79f0085b79f00b6b79f003a
:106d8c002a6e2d000b0020004c242d000d0020003d
:106d9c00c4602d0005002000c4af9f00d5af9f003c
:106dac0044232d0005002000a4af9f00b5af9f0029
:106dbc008caf9f009daf9f00b44623001442780017
:106dcc000483fb000403200004b3b90044c922006f
:106ddc00040043004aa1020000000000c446230046
:106dec001402780064026200030032000a00be0044
:106dfc0020bf02000000000020cc2a004aa10200a3
:106e0c00000000005e30230009202300349d810027
:106e1c00e00f5200400032000402e900349d89006a
:106e2c004522dd006e407a00e04f50001000320029
:106e3c000004eb000498810080747a00d89f020053
:106e4c00000000000804e800049881000402e80037
:106e5c000482fb0004988900349d81004522dd00ea
:106e6c00080242006e407a00e04f5000f1ff3a00f9
:106e7c000002eb00349d8900270037006544230095
:106e8c009542780064c2620021003200b6462300ad
:106e9c00164378000682fb000da2b9007a0242006c
:106eac006c027a0004000100e04f50001800320020
:106ebc00b5462300954278000582fb000da2b9006f
:106ecc008402b0000c0042004aa102000000000045
:106edc0020cc2a004aa10200000000001898810072
:106eec0004988100840f540009003200fa0f20002e
:106efc0069407c00d89f0200000000000a04640076
:106f0c000804e80004988100840f5400f8ff3a004c
:106f1c0094168000040037000d032000ccc622001c
:106f2c00fab79f008bbf9f0026a302000000000051
:106f3c00e04f5000d1ff32007fb597008fbd970016
:106f4c00b6a3020000000000e04f50000300320026
:106f5c00baa3020000000000acff37003ca3020003
:106f6c0000000000004478000882fb0005002000af
:106f7c00f6072000860f5200e08f5a0098023e0060
:106f8c00046001008c023700430237000c0137000b
:106f9c0093023700bc003700550237001f01370041
:106fac008f023700770037008d02370066023700fa
:106fbc008b0237008a0237006302370096013700d4
:106fcc00870237002401370085023700840237001e
:106fdc0083023700820237008102370080023700bb
:106fec007f0237007e0237007d0237007c023700bb
:106ffc00cd0037007a02370079023700780237006b
:10700c0077023700760237007502370074023700ba
:10701c0073023700720237007102370070023700ba
:10702c006f0237006e0237006d0237006c023700ba
:10703c006b0237006a0237006902370068023700ba
:10704c0067023700660237006502370064023700ba
:10705c0063023700620237006102370060023700ba
:10706c005f0237005e0237005d0237005c023700ba
:10707c005b0237005a0237005902370058023700ba
:10708c0057023700560237005502370054023700ba
:10709c0053023700520237005102370050023700ba
:1070ac004f0237004e0237004d0237004c023700ba
:1070bc004b0237004a0237004902370048023700ba
:1070cc0047023700460237004502370044023700ba
:1070dc0043023700420237004102370040023700ba
:1070ec003f0237003e0237003d0237003c023700ba
:1070fc003b0237003a0237003902370038023700ba
:10710c0037023700360237003502370034023700b9
:10711c0033023700320237003102370030023700b9
:10712c002f0237002e0237002d0237002c023700b9
:10713c002b0237002a0237002902370028023700b9
:10714c0027023700260237002502370024023700b9
:10715c0023023700220237002102370020023700b9
:10716c001f0237001e0237001d0237001c023700b9
:10717c001b0237001a0237001902370018023700b9
:10718c004100370014988100efb29700848f5200b1
:10719c003900320004988100848f52000b003a00b1
:1071ac000502e9000482fb00e4b79f000498890003
:1071bc000042eb006fb3970084747b0020c82a0058
:1071cc004aa102000000000010ff3700efb2970048
:1071dc000502e9000482fb00e4b79f0040cc2a00c2
:1071ec004aa1020000000000059881000006eb0097
:1071fc006fb39700850f530012003200060278001f
:10720c00fd0f20000404e80069407c0080747a00c3
:10721c00e04f500003003200d89f02000000000035
:10722c000300370000c2b300d89f0200000000002a
:10723c000c06e8000d02640005988100850f5200d1
:10724c00f0ff3a000502e9000482fb000498890073
:10725c0080cc2a004aa10200000000000c407800fb
:10726c00aca0020000000000b0cc2a004aa1020031
:10727c0000000000e5fe370070c0b300d89f02008c
:10728c0000000000e1fe370004988100efb2970087
:10729c00848f520020003200050278000006eb00bb
:1072ac00fd0f20000404e80069407c0080747a0023
:1072bc00e04f500003003200d89f02000000000095
:1072cc000300370000c2b300d89f0200000000008a
:1072dc000c06e8000d02640005988100850f520031
:1072ec00f0ff3a000502e9000482fb0004988900d3
:1072fc0080cc2a004aa10200000000000c4078005b
:10730c00aca0020000000000b0cc2a004aa1020090
:10731c0000000000bdfe370070c0b300d89f020013
:10732c0000000000b9fe37003ca302000000000082
:10733c00b4c5b300844f5000b4fe3a003ca3020025
:10734c000000000014c4b300844f5000420032000f
:10735c0007003e0070425200844f50000c00320077
:10736c0063424200844f5000a8fe3a000e003700e2
:10737c0034c4b300844f500028003200a6003900fa
:10738c000442e800844f5000a0fe3a000c00370085
:10739c003ca3020000000000e4c7b300844f50007f
:1073ac009afe3a003c0137003ca3020000000000aa
:1073bc00e4c7b300844f500094fe3a004c013700f0
:1073cc004fb39700e40f530005003400a8be020031
:1073dc00000000000002eb00c4b79f008bfe3700da
:1073ec0014988100efb29700848f5200070032008e
:1073fc000502e9000482fb00e4b79f0040cc2a00a0
:10740c004aa102000000000080fe370070c0b300eb
:10741c00d89f0200000000007cfe37000498810019
:10742c006fb39700840f5300070032000602e80088
:10743c000482fb00e4b79f00d0cc2a004aa10200d2
:10744c000000000071fe370070c0b300d89f02002e
:10745c00000000006dfe3700119881000104e90066
:10746c000884fb000806780006988100860f5400fb
:10747c00650032000000eb00f40f20005fb19700b4
:10748c00e9427c00e0cf52005a003a008802e90041
:10749c0084826200e9c37a00e0cf530055003200c9
:1074ac000000e800820f5000520036000500780002
:1074bc005fb297000402e800d4b79f00868f50009b
:1074cc000a0032008043eb00f40f200087747b002d
:1074dc000603e90004036300868f5000fbff3a00ab
:1074ec00069889000042eb0084747b0006988100aa
:1074fc00860f50001000320069427800f70f200010
:10750c00e04f520008003a000300370069c27a00cd
:10751c00e04f520004003a008502e8008582fb002f
:10752c0095b79f00040037008502e900878262004e
:10753c00868f5200f5ff3a0010cd2a004aa10200b6
:10754c0000000000b5462300954278000583fb003f
:10755c000403200004b3b90044c922000400430012
:10756c004aa1020000000000c44623001402780067
:10757c0064026200030032000a00be0020bf020059
:10758c000000000020cc2a004aa1020000000000ec
:10759c001fb39700880f53000e0032008606780048
:1075ac0069c07e00d89f0200000000000498810092
:1075bc006df27c000402e800f60f20000602620067
:1075cc00049889008d06e80086866600888f560030
:1075dc00f3ff3a0004988100e4b79f000042eb00ef
:1075ec00efb2970084f47a008c8f520007fe3a00b9
:1075fc00050037000804e90004046400080678005c
:10760c00860f54009eff3a0070c0b300d89f020052
:10761c0000000000fdfd3700129881000204e90013
:10762c000884fb000806780006988100860f540039
:10763c00660032000000eb00f40f2000dfb2970070
:10764c008500e900e9427c00e0cf52005a003a0084
:10765c008802e90084826200e9c37a00e0cf53001b
:10766c00550032000000e800808f500052003a00b4
:10767c00050078005fb297000402e900d4b79f00c0
:10768c00860f51000a0032008043eb00f40f2000fb
:10769c0087747b000603e90004036300860f510026
:1076ac00fbff3a00069889000042eb0084747b00d3
:1076bc0006988100860f5000100032006942780055
:1076cc00f70f2000e04f520008003a00030037008b
:1076dc0069c27a00e04f520004003a008502e800cb
:1076ec008582fb0095b79f00040037008502e900f6
:1076fc0087826200850f5300f5ff3a0010cd2a00f7
:10770c004aa1020000000000b54623009542780013
:10771c000583fb000403200004b3b90044c9220014
:10772c00040043004aa1020000000000c4462300ec
:10773c001402780064026200030032000a00be00ea
:10774c0020bf02000000000020cc2a004aa1020049
:10775c00000000001fb39700880f53000e0032008a
:10776c008606780069c07e00d89f020000000000e9
:10777c00049881006df27c000402e800f60f2000f2
:10778c0006026200049889008d06e8008686660071
:10779c008d0f5400f3ff3a0004988100e4b79f006a
:1077ac000042eb00efb2970084f47a00850f56008c
:1077bc0096fd3a00050037000804e9000404640053
:1077cc0008067800860f54009eff3a005fb39700be
:1077dc00e10f53002c003a0010cd2a004aa1020000
:1077ec0000000000b4462300144278000483fb0020
:1077fc000403200004b3b90044c922000400430070
:10780c004aa1020000000000c446230014027800c4
:10781c0064026200030032000a00be0020bf0200b6
:10782c000000000020cc2a004aa102000000000049
:10783c0005988100e5b79f0014988100848f520051
:10784c000b0032000043eb00f50f2000efb3970064
:10785c0086f47b008703e90085836300870f520061
:10786c00fbff3a00e7b79f000703780006988900f2
:10787c000042eb00efb2970084f47a000003eb00b7
:10788c00d6b79f0061fd370070c0b300d89f0200cf
:10789c00000000005dfd3700189881006fb2970062
:1078ac00880f52000e00320080cc2a004aa1020040
:1078bc0000000000efb29700088052000080fb002f
:1078cc00aca0020000000000b0cc2a004aa10200cb
:1078dc000000000016988100e6b79f004bfd3700b2
:1078ec0070c0b300d89f02000000000047fd3700b5
:1078fc00089881006fb29700880f52000e0032007a
:10790c0080cc2a004aa1020000000000efb29700d0
:10791c00050054000080fb00aca002000000000039
:10792c0070cd2a004aa102000000000006988100d8
:10793c00e6b79f0035fd370070c0b300d89f02003a
:10794c000000000031fd3700049881000044eb007a
:10795c000520230088727a000402e8000482fb00f0
:10796c00e4b79f000498890080c72a005ca202003b
:10797c00000000000498810084b79f0015988100d6
:10798c00a5b79f0044302300084a7800c446230062
:10799c00140278006402620061003a000003eb00fc
:1079ac00d6b79f0006427800e4df9f008002eb0010
:1079bc00b5b79f00650037004fb397000603e8008a
:1079cc00c6b79f00f40f530010fd3a00c4600200cc
:1079dc00000000000002eb00c4b79f00e10237007a
:1079ec000c9881008c02e8008582fb0014988100c1
:1079fc00848f520046003200ff4f54004400360082
:107a0c00e4c7b300844f540041003e00efb297002e
:107a1c008c8f52000d003a0008407800d89f02006d
:107a2c00000000000498810088747a000402e800c9
:107a3c000482fb00e4b79f00049889000042eb002d
:107a4c006fb3970084747b00f0fc370080cc2a0065
:107a5c004aa10200000000006fb29700040056001b
:107a6c00fd0f20000d006000aca002000000000023
:107a7c0070cd2a004aa10200000000000c98810081
:107a8c00efb297000502e9008d0662008d0f5600db
:107a9c00100032000c82440069437e0016429800ac
:107aac0069407e00e04f500005003200d89f020074
:107abc000000000090cd2a004aa102000000000046
:107acc000c06e900f40f2000040666008d0f56002a
:107adc00f0ff3a0008407800d89f02000000000038
:107aec00efb2970088f47a00050378008602e8006c
:107afc00f40f200084826200e5b79f000598810096
:107b0c008502e8000482620004988900bffc3700fb
:107b1c0070c0b300d89f020000000000bbfc37000f
:107b2c00b84c020000000000407a2d00010020003b
:107b3c007abf0200000000000002eb00d4b79f00e7
:107b4c0084427800e5df9f00ed0537001498810032
:107b5c000520230065437a000683fb000700200004
:107b6c00e5072000850f5300e08f5b00b2053e0057
:107b7c0006600100b4053700af053700ae053700cd
:107b8c00ad053700ac053700ab053700aa0537004b
:107b9c00a9053700a8053700a7053700aa05370047
:107bac00a5053700a4053700a7053700a205370047
:107bbc00a1053700a00537009f0537009e0537004b
:107bcc009d0537009c0537009b0537009a0537004b
:107bdc00990537009805370097053700960537004b
:107bec00950537009405370093053700920537004b
:107bfc00910537009405370072053700e103370013
:107c0c0054023700590237001f03370000033700b6
:107c1c0089053700b603370087053700860537001e
:107c2c008505370088053700210537003c053700ee
:107c3c0003053700380437003704370036043700a3
:107c4c00350437003404370033043700320437006e
:107c5c0031043700300437002f0437007605370025
:107c6c00750537003a033700f1013700720537000c
:107c7c0049003700640237005a0237006e0537009e
:107c8c007f013700df0237006b0537006a053700cc
:107c9c00690537006805370067053700660537004a
:107cac008b013700920137006305370062053700fe
:107cbc0061053700b50137005f0537005e053700f9
:107ccc00120337005c0537005b0537005a05370097
:107cdc006002370058053700570537005605370046
:107cec00e6033700e4043700f70337001b053700c1
:107cfc00fd0437005005370031023700e300370030
:107d0c0057013700b1023700c70137004501370072
:107d1c0047013700160037002200370046053700b0
:107d2c00610137007c013700d6003700420537006f
:107d3c001d013700820137003f0537005b04370017
:107d4c00ef0237003c0537003b05370033013700a5
:107d5c008002370038053700370537003605370005
:107d6c00cf033700cd013700e1033700eb013700bb
:107d7c0082f907000003eb00b6b79f00860f500096
:107d8c0033053a0014988100a4b79f000598810030
:107d9c0085b79f002e05370084bf0200000000004d
:107dac002b05370007fb0700b44623000043eb000c
:107dbc00944f130026053200a0752d000100200001
:107dcc0020bf020000000000a17f25001000200051
:107ddc00c49f020000000000e69f020000000000ab
:107dec0000c2b300d89f020000000000c07a2d0032
:107dfc000100200020bf020000000000c17f250010
:107e0c0010002000c49f020000000000e69f02004a
:107e1c000000000020712d000100200020bf020096
:107e2c0000000000e17f250010002000c49f02002c
:107e3c0000000000e69f02000000000080c72a003e
:107e4c005ca202000000000080532d000100200005
:107e5c007abf02000000000069f707000420200030
:107e6c005516800005026200e00f5200050032003a
:107e7c00003d2d000100200020bf0200000000008a
:107e8c0004003700202d2d000100200020bf02002f
:107e9c0000000000c0c2b300d89f02000000000028
:107eac0000c2b300d89f020000000000e282ab00c9
:107ebc0005003200402c2d000100200020bf0200e4
:107ecc00000000000400370040222d0001002000bb
:107edc0020bf020000000000c0c2b300d89f020007
:107eec000000000000c2b300d89f02000000000098
:107efc00040220004617800006026200e00f5200c8
:107f0c0004003a0060792d000100200020bf02001f
:107f1c0000000000e882ab0004003a00c0692d00ac
:107f2c000100200020bf0200000000006444230078
:107f3c0014427800704262000500320060ed2c00a3
:107f4c00010020007abf020000000000040037008e
:107f5c0000f92c00010020007abf02000000000094
:107f6c0064442300144278006842620005003a0021
:107f7c0080062d000100200020bf02000000000040
:107f8c0004003700c0072d000100200020bf0200b4
:107f9c0000000000c0c2b300d89f02000000000027
:107fac0000c2b300d89f020000000000c00c2d00de
:107fbc000100200020bf02000000000084442300c8
:107fcc0014407800aca002000000000080c72a001a
:107fdc005ca20200000000006444230014427800fc
:107fec00634262000482fb00e20f52000e0032007a
:107ffc00e30f520011003200e10f52000500320075
:10800c0040212d00010020007abf0200000000007a
:10801c000e00370040202d00010020007abf020026
:10802c00000000000900370040272d00010020004f
:10803c007abf0200000000000400370040282d0029
:10804c00010020007abf020000000000b4462300ab
:10805c00144278008482fb000403200004aab900b7
:10806c006402b000c5c6220065027a00040001005b
:10807c0080532d00010020007abf02000000000098
:10808c007304370032f90700710437000402e8006a
:10809c000482fb00149889000ff807004af70700c8
:1080ac000042e900e94f520003003e0095462300d0
:1080bc00844a78000d00370044302300004aeb005e
:1080cc00c0552c00010020007abf02000000000007
:1080dc008001eb00a2002000110020009000200085
:1080ec000df8070094462300004ae9000044eb0019
:1080fc009446230095c0b30094cf120011003a00af
:10810c00f5f7070030f7070000447800e04f540003
:10811c000c003a0044302300004aeb00402a2d00aa
:10812c00010020007abf0200000000008001eb007b
:10813c00f2ff27008300780020022000f6f70700ea
:10814c0000447800e02e2d00010020007abf0200d0
:10815c000000000000402d00010020007abf02004a
:10816c0000000000b0a302000000000094462300b1
:10817c0096c0b300944f130003003a000880fb0034
:10818c00bca3020000000000aea30200000000002f
:10819c0008c2b3003ca3020000000000884f50004e
:1081ac00fcff3a002a0437000402e8000482fb00ba
:1081bc0014988900c8f7070003f707000002e900cc
:1081cc00e30f520003003e00a4462300004ae900de
:1081dc000d00370044302300004aeb00e0ee2c0089
:1081ec00010020007abf0200000000008001eb00bb
:1081fc00420020001100200010002000c6f70700ec
:10820c00a4462300004ae900002e2d0001002000a6
:10821c007abf0200000000000d04370078f607005a
:10822c000b043700c487020000000000080437006c
:10823c00b44623008042eb0094cf120005003a00b4
:10824c0040052d00010020007abf02000000000054
:10825c00ff033700ae86020000000000fc0337006d
:10826c0064442300c5cfb30014ca620040202d0023
:10827c00010020007abf020000000000f403370068
:10828c0065442300154278000400a0000414a100ea
:10829c00844a780040212d00010020007abf0200a2
:1082ac0000000000ea033700654423001542780003
:1082bc000400a1000414a000844a780040272d007b
:1082cc00010020007abf020000000000e00337002c
:1082dc006444230014437800634a730040282d0043
:1082ec00010020007abf020000000000d803370014
:1082fc00644423001434a000c0072d0001002000aa
:10830c0020bf02000000000080c72a005ca202000f
:10831c0000000000ce033700644423001434a10095
:10832c0080062d000100200020bf0200000000008c
:10833c0080c72a005ca2020000000000c4033700c2
:10834c00b44623008042eb0094cf120005003a00a3
:10835c0040052d00010020007abf02000000000043
:10836c00bb033700e282a900e082a90040222d0065
:10837c000100200020bf02000000000080c72a007e
:10838c005ca2020000000000b1033700b4462300d9
:10839c000043eb00944f130005003a0040052d00fc
:1083ac00010020007abf020000000000a803370083
:1083bc0064442300144278007042620004003a00c6
:1083cc00e0f12c00010020007abf02000000000048
:1083dc00e082a800e282a900402c2d0001002000c0
:1083ec0020bf02000000000080c72a005ca202002f
:1083fc000000000021e3a80050002000849f020030
:10840c0000000000f4042000840f500004003e0023
:10841c0060f32c00010020007abf02000000000075
:10842c0021e3a9008a033700c1f90700880337004c
:10843c000402e8000482fb001498890026f7070068
:10844c0061f60700000778000e40780014a00200c7
:10845c000000000088802d00090020000800be00ec
:10846c0020bf0200000000000e407800aca002000b
:10847c00000000000800be0020bf02000000000049
:10848c000e40780016a102000000000080c72a00f0
:10849c005ca20200000000006d0337000402e8003b
:1084ac000482fb00149889000bf7070046f60700be
:1084bc000080fb008444230094407800ac9f0200b1
:1084cc0000000000000778000e40780014a00200a5
:1084dc000000000088802d00090020000800be006c
:1084ec0020bf0200000000000e407800aca002008b
:1084fc00000000000800be0020bf020000000000c9
:10850c000e40780016a102000000000080c72a006f
:10851c005ca20200000000004d033700b4462300ab
:10852c008042eb0094cf120005003a0011c0b3005a
:10853c00014078001eb20200000000004403370026
:10854c0040152d00010020007abf02000000000041
:10855c003f03370080832d00010020007abf02000a
:10856c000000000017f907003903370010c00200a3
:10857c0000000000e04f50003503320015c0b3007e
:10858c00a47f2400054a780040602d0001002000e3
:10859c007abf02000000000000a02600810120002c
:1085ac0038cd0200000000001e9f020000000000f9
:1085bc00b0a30200000000000000fe0024033700fe
:1085cc009bf607000004780003003700568c02006d
:1085dc00000000000804e900e00f5400fbff3a0023
:1085ec001b03370092f607000004780003003700e5
:1085fc00228c0200000000000804e900e00f540087
:10860c00fbff3a001203370089f6070000047800dc
:10861c0089c72a000c0037002fa89700bfa8970025
:10862c0020bf0200000000008a8c02000000000045
:10863c000080fb006af50700090078005ca20200cc
:10864c00000000000804e900e00f5400f2ff3a00bb
:10865c00ff023700b44623000043eb00944f130095
:10866c0005003a0040052d00010020007abf0200f1
:10867c0000000000f6023700c922a900cb22a80096
:10868c0021e3a80000d027000100200038cd020013
:10869c00000000000000eb00849f020000000000be
:1086ac00041b2000840f50001b003600200020000b
:1086bc00849f020000000000742b2000840f5000e7
:1086cc0015003600003d2d000100200020bf0200e7
:1086dc000000000080c72a005ca20200000000001d
:1086ec00b4462300144278008482fb00040320006b
:1086fc0004aab9000402b000c5c6220065027a00c3
:10870c0004000100c0462d00010020007abf0200c9
:10871c00000000000d003700c922a900cb22a900df
:10872c00a0022d00010020007abf02000000000012
:10873c00202d2d000100200020bf020000000000b1
:10874c0080c72a005ca202000000000021e3a900ff
:10875c00bf023700b446230094427800e0cf5200a9
:10876c0005003a0040052d00010020007abf0200f0
:10877c0000000000b60237008582fb0004032000d5
:10878c0004aab9002402b000c5c6220065027a0012
:10879c0004000100c0362d00010020007abf020049
:1087ac0000000000c922a900cb22a900202d2d0019
:1087bc000100200020bf02000000000080c72a003a
:1087cc005ca2020000000000a102370080442d00d2
:1087dc000100200020bf0200000000000aa10200de
:1087ec0000000000c0852d000100200020bf020009
:1087fc000000000080c72a005ca2020000000000fc
:10880c009302370042a302000000000090023700e0
:10881c0007f6070000047800806e2d000100200090
:10882c0020bf02000000000008007800baa002007f
:10883c000000000080842d00010020007abf02009f
:10884c000000000008007800cf80de0001017800f5
:10885c008201780004402200450f20006033b800ec
:10886c007e2702000000000004242400f5002000f4
:10887c006033b800682702000000000038cd020009
:10888c000000000072023700e9f5070000047800d0
:10889c00806e2d000100200020bf020000000000af
:1088ac0008007800baa0020000000000e0842d004f
:1088bc00010020007abf02000000000008007800d0
:1088cc00cf80de0001017800820178000440220094
:1088dc00450f20006033b8007e2702000000000026
:1088ec00843e2000050020006033b8006827020099
:1088fc000000000038cd02000000000054023700d8
:10890c00c44623001420a00051023700b4462300b3
:10891c008042eb0094cf120005003a0040052d0078
:10892c00010020007abf020000000000480237005e
:10893c00d48c0200000000004502370080cf5300a9
:10894c0001003a00014378008502e8000600370078
:10895c0016c0b30015002000f20f200003202300e6
:10896c00e0c3b3008040eb00848342008283630049
:10897c00e3c37b00e0cf5300f0ff3a004730230005
:10898c00864b780027022000878f520004003400a9
:10899c0015c0b30044302300054a78002c02370080
:1089ac00e04f53002a023a000402e800f90f2000bd
:1089bc00090262001498890003f50700000478008e
:1089cc00169881008904630004202300e4c27c0013
:1089dc00d4c3b30084cf520022003a000802e9004d
:1089ec00e40f52001b003e000602e8000482fb006c
:1089fc0014988900c542dd00442e23008482420075
:108a0c00050078000002eb008043eb00060220001a
:108a1c00076878000402e800860f5200fcff3a0059
:108a2c001498810000202300e7c3b300f10f20004d
:108a3c0003003700866a78000402e8000102620035
:108a4c0060437a00874f5300faff3a00149889006c
:108a5c00ff01370015c0b30044302300054a7800ed
:108a6c00fb013700e00f540015003a005930230089
:108a7c0018002000eecd2a002ccc2a0008407800eb
:108a8c00aca00200000000000e0078004aa1020019
:108a9c0000000000090078004aa10200000000005c
:108aac000c0078005ca20200000000000804e80042
:108abc000902b000e60f5400f0ff3a00e401370061
:108acc000802e900e40f520005003e0080c72a00ae
:108adc005ca2020000000000389d8900dc01370018
:108aec0015c0b30044302300054a7800d801370084
:108afc000402e800f80f20000802620014988900b4
:108b0c00b1f407008004780073f507001498810015
:108b1c000804620004202300e4427c0094c2b300e9
:108b2c0084cf52000e003a00b44623001442780061
:108b3c008482fb000403200004aab900fc0242005a
:108b4c00c4c6220064827a00090078000400010087
:108b5c0080c72a005ca2020000000000bc013700a4
:108b6c0015c0b30044302300054a7800b801370023
:108b7c0080cf530001003a00814278000603e800e0
:108b8c000600370015c0b30016002000f20f2000bd
:108b9c000320230020c2b3008040eb008403430079
:108bac0082836300e3c37b00e0cf5300f0ff3a0005
:108bbc0044302300054a7800e0cf5200a4013a006b
:108bcc00e06e2d000100200020bf0200000000001c
:108bdc0020c2b300d89f0200000000000820230030
:108bec00694423000987e800bd462300ccc6220057
:108bfc001300370014988900d89f02000000000071
:108c0c001498810068407a000080fb0019437800ba
:108c1c0068426300030032009e407800ac9f020063
:108c2c00000000001d4278008482fb000403200039
:108c3c0004aab900680242006c027a000400010028
:108c4c00149881000402e8000482fb0068407a005a
:108c5c0025c2b300854f5000e6ff3a0014988900f6
:108c6c0005407800d89f02000000000080c72a0051
:108c7c005ca202000000000075013700b44623001e
:108c8c00144278008482fb000403200004aab9007b
:108c9c00c6c6220066027a00040001006c0137008f
:108cac00b4462300144278008482fb0004032000a5
:108cbc0004aab9000482e800c5c6220065027a0045
:108ccc000400010062013700b4462300144278000e
:108cdc008482fb000403200004aab9006402420051
:108cec00c5c6220065027a00040001005801370055
:108cfc00b4462300144278008482fb000403200055
:108d0c0004aab90066024200c5c6220065027a00b8
:108d1c00040001004e013700e06e2d000100200020
:108d2c0020bf02000000000027f40700f0b79f00ee
:108d3c00149881000402e9000482fb001498890055
:108d4c00bbf4070000047800cef40700e00f5000dd
:108d5c000900320084442300004a7800e80f5000d8
:108d6c00030034000482e9001454a0000200370010
:108d7c00644423001454a100e8af9f006d44230009
:108d8c000d86e800486f2d000900200040003700d8
:108d9c007fb0970086a202000000000005c2b3005d
:108dac001dc2620004003a0086c0b3009c4f130041
:108dbc0004003a000900370004c1b3009c4f1200b4
:108dcc0006003200b0c3b300d89f020000000000c0
:108ddc001c407800aca00200000000009d4278000e
:108dec0068c26200050032009c4078007fb097009a
:108dfc00ac9f020000000000f0b79f00b6462300b5
:108e0c00164378008682fb000403200004aab900f4
:108e1c0068024200c5c6220065027a007fb0970046
:108e2c00040001000007780000c2b300d89f0200c4
:108e3c000000000006c4b3001d42630011003200a4
:108e4c000800be0020bf0200000000009d42780018
:108e5c0068c26200050032009c4078000e00780069
:108e6c00ac9f020000000000000778000e007800a4
:108e7c0086a202000000000000c2b300d89f0200ce
:108e8c00000000006fab97000603e900e6af9f00ff
:108e9c006faa9700e00f5200bdff3a0080c72a006e
:108eac005ca2020000000000e9003700406f2d00ba
:108ebc000100200020bf0200000000001498810077
:108ecc000402e8000482fb000520230065427a00be
:108edc0085c7b300854f52000c003200f4c252001b
:108eec00854f52000b00320085c2e900854f5200bd
:108efc000a0032000044eb00f5c24200854f5200dc
:108f0c0008003a0038002000050037000004eb0090
:108f1c000300370018002000010037002800200053
:108f2c000844e80042f407000007780055f40700f5
:108f3c00e00f50000900320084442300004a7800fe
:108f4c00e80f5000030034000482e9001454a00020
:108f5c0002003700644423001454a100e04f540075
:108f6c0004003200a446230094427800e5df9f0001
:108f7c00084ae900cdc622006c4423008c84e8002a
:108f8c0024003700b6462300164378000682fb0007
:108f9c000603200006a2b9006a0242006d027a00a4
:108fac00040001009c42780068c262000300320099
:108fbc0099407800ac9f02000000000086a20200dd
:108fcc000000000006c2b3001c42630004003a001b
:108fdc0084c0b300994f120004003a000900370016
:108fec0005c1b30099cf120006003200b0c3b30024
:108ffc00d89f02000000000019407800aca00200cd
:10900c000000000000c2b300d89f02000000000066
:10901c000e07e900e00f5700daff3a00e04f54006a
:10902c0003003200a44623006fdb9700064a780049
:10903c0080c72a005ca202000000000084003700f8
:10904c00a06f2d00010020007abf0200000000007c
:10905c00b4462300144278008482fb0004032000f1
:10906c0004aab9006c024200c5c6220065027a004f
:10907c00040001007600370000702d000100200074
:10908c007abf020000000000b446230014427800ae
:10909c008482fb000403200004aab9006e02420083
:1090ac00c5c6220065027a00040001006800370082
:1090bc0000512d00010020007abf020000000000ca
:1090cc00b4462300144278008482fb000403200081
:1090dc0004aab90070024200c5c6220065027a00db
:1090ec00040001005a003700a0512d00010020009f
:1090fc007abf020000000000b4462300144278003e
:10910c008482fb000403200004aab900720242000e
:10911c00c5c6220065027a00040001004c0037002d
:10912c0060502d000100200020bf02000000000054
:10913c00b4462300144278008482fb000403200010
:10914c0004aab90074024200c5c6220065027a0066
:10915c0004000100a2f207003d003700b4f3070041
:10916c000004780040522d000100200020bf0200b6
:10917c00000000000800780086a202000000000039
:10918c00b9462300cec622000800370019427800e9
:10919c008482fb000403200004aab900760242007a
:1091ac006e027a00040001000804e900e00f54008c
:1091bc00f6ff3a0080c72a005ca202000000000003
:1091cc00230037009af30700000478004fa897009b
:1091dc00dfa8970020bf020000000000b946230062
:1091ec00cec622000d003700194378008682fb00a2
:1091fc000403200004aab900780242006e027a002f
:10920c00040001000080fb0075f2070000c2b300ef
:10921c00d89f0200000000000804e900e00f540091
:10922c00f1ff3a00c03d2d00010020007abf020082
:10923c00000000000600370015c0b30044302300c6
:10924c00054a7800020037000002eb00b4b79f001b
:10925c00149881000402e8000482fb001498890031
:10926c00443023008042eb0094cf120019003200ee
:10927c000fa897009fa8970020bf020000000000d5
:10928c00149881002fb39700840f53000500310010
:10929c000642520004407800aca00200000000001e
:1092ac0005003700cfe297000542520004407800d9
:1092bc00aca002000000000044302300004aeb0088
:1092cc0080c72a005ca202000000000016002000eb
:1092dc00b6b79f000598810014988100850f520045
:1092ec00070032003fb29700e00f520017fa32002d
:1092fc008fb297001598890005988900aef6370053
:10930c0016002000b6b79f00f9ff370024608100db
:10931c004580220065437a0035c8b300854f530061
:10932c000e003a000402e800246089004580220007
:10933c0065437a0005ceb300854f530007003e000d
:10934c00458022008502420006ceb3000402e800ec
:10935c00d54f1300fdff3600246089000000060085
:10936c0044802200144378000042eb0005ceb30089
:10937c00854f53002500360054802200144278009b
:10938c000482fb004822dd006580220095427800b3
:10939c008582fb0005024200840f500010003a0049
:1093ac000b0037008403e80065c17b004811dd0029
:1093bc008483e800e5c37b008783fb0087034100bf
:1093cc00870f5000030032000642b000080037003f
:1093dc000002eb008408780014c0b3000b003700c7
:1093ec000642b0000002eb004580220003ceb30021
:1093fc000683fb00630343000602420065437a00c8
:10940c00834f5300e7ff3e000042eb00044078001e
:10941c0000000600129881009042780014c0b3003e
:10942c00e0cf520015003200042023006442790082
:10943c0084cf5200070032000300370061437a00ea
:10944c0086cf520006003200129889000042eb00d1
:10945c000a00370002027800f70f200001202300d9
:10946c000402e8000702620014988900d0427800d8
:10947c00e0cf5200f1ff3a0014c0b3000440780072
:10948c0000000600881f78002560810044802200bf
:10949c0064c27a0086c2b300864f52000c003a00b8
:1094ac008502e80025608900ae0007002460810079
:1094bc004580220065437a0095c2b300854f530066
:1094cc007a003a000402e800246089007700370033
:1094dc00f6cbb30006434200f94f530008003e00a0
:1094ec000482fb001404b10004024200c6c0220036
:1094fc0066007a008502e800256089006b00370061
:10950c0006c8b300864f520006003e0006cdb300dd
:10951c00064342000000eb00e94f530055003600b3
:10952c00620037008502e800256089000482fb0098
:10953c00050020003409b1000580b100ea0f52008b
:10954c00e08f5a0049003e0004600100140037000f
:10955c00090037004500370020003700290037008c
:10956c003c00370041003700310037003400370031
:10957c003e00370015003700b44623001442780033
:10958c008482fb000403200004aab9006a02420092
:10959c00c5c6220065027a000400010043003700b2
:1095ac00b4462300144278008482fb00040320009c
:1095bc0004aab90068024200c5c6220065047a00fc
:1095cc006800070008000100380037008a8c020090
:1095dc00000000000080fb0034003700b44623007c
:1095ec00144278008482fb000403200004aab90012
:1095fc0074024200c5c6220065027a000400010014
:10960c002a003700b4462300144278008482fb0001
:10961c000403200004aab90078024200c5c6220047
:10962c0065027a00040001000080fb001f00370077
:10963c00501680004900de00610060001b003700fe
:10964c00101780004400de00610060000080ea001a
:10965c001600370021e3a80010002000849f0200b0
:10966c000000000021e3a900100037000000eb000f
:10967c000e00370046802200068342000000eb00fb
:10968c0002cdb3006a00b9000482fb000000420066
:10969c000003b1008502e800564278008243420084
:1096ac00e9cf5300f7ff3600256089004f0478009e
